:020000021000EC
:10200000C80A0020913A01006720030067200300FE
:10201000E733030067200300672003006720030005
:102020006720030067200300672003006720030088
:10203000672003009C060400893403006720030026
:102040006720030067200300672003006720030068
:102050006720030067200300672003006720030058
:102060006720030067200300672003006720030048
:10207000E99B01006720030067200300672003003D
:102080006720030067200300672003006720030028
:10209000672003009D4301006720030067200300C1
:1020A00067200300F93E0100D93E010067200300CC
:1020B0006720030061B4020067200300B5BE020080
:1020C0005FB703005BB7030095B6020075B7030066
:1020D00063B7030085BE020067B70300F5BE0200C8
:1020E00009950200CD96020065BF0200672003003B
:1020F00067200300672003006720030067200300B8
:1021000067200300672003006720030067200300A7
:102110006720030067200300672003006720030097
:102120006720030067200300672003006720030087
:102130006720030067200300B9360100BB1F0300BE
:1021400082B030BF074BD3F8F030DB0704D5002353
:102150000193019B052B01DD02B07047019B013308
:10216000F6E700BF00ED00E0F0B5114A114C124E49
:1021700000F00105E3695F0713D40DB9334213D1B1
:1021800003EA00078F4207D10B4A1A40002A0CBF0E
:1021900000206FF00100F0BD013AEBD16FF00200BA
:1021A000F9E74FF0FF30F6E76FF00100F3E700BF0B
:1021B0008096980000000350020001000B4B70B5A0
:1021C000D96911F480310DD101244FF48072084E89
:1021D000084DF46020462C641A61FFF7C5FF346493
:1021E000EC6070BD6FF00100FBE700BF0000035022
:1021F00000100350002003504FF4003238B50F4B4D
:102200000F4C9A6641F671330122E569E3630D4B89
:102210000021DA60022360612120236105F480350A
:10222000FFF7A2FF10B92120FFF79EFF0122064B06
:10223000DA600DB10023E36338BD00BF00900050A9
:1022400000000350001003500020035070B5134CE1
:102250006061E3695B071ED40E4656F8043B8D1897
:10226000A361AE420BD10423002121202361FFF79B
:102270007BFF58B9BDE870402120FFF775BF0821EA
:102280000846FFF771FF10B10423236170BD56F8B3
:10229000043BA361E5E74FF0FF30F7E70000035090
:1022A0002DE9F84315464FF40032184B89469A66DB
:1022B00041F6713203F51C33DF69DA630122064609
:1022C00003F58053DFF84C8007F48037DA6055B9A6
:1022D000284601220E4BDA601FB10022A3F50053FD
:1022E000DA63BDE8F88306F5005404EA0804A41B89
:1022F000AC4228BF2C46494622463046FFF7A6FF8F
:102300000028E6D12644A1442D1BE0E700900050B0
:102310000020035000E0FFFF00000000000000006C
:10232000013800D0FCE77047002370B5424C0546E9
:102330008AB0E36318B1008823600EF065FA0EF0EE
:102340000DFC3E4828F033FB3D4E3E4B304633609B
:102350003D4B736025F0B8FA0021304613F05CF86D
:1023600033A3D3E90023A062C4E9062325F0B7FA1A
:10237000D4E9062319431043C4E90601CDE900015D
:102380004FF0FF334FF0FF32A06A28F0B7FB022274
:102390004FF0FF31A06A28F0B6FB01200DF0B8FF26
:1023A0004FF4007300222949A06A28F0B0FCB0F570
:1023B000007F39D100239422079309933C23CDE970
:1023C00003320593962306935023A06A03A908932A
:1023D00013F036F935B3287C0EF0D2FB0546F0B980
:1023E000A06A28F089FD0EF059FC0DF073FF20B1B2
:1023F0004FF4807000210AF0CDFE0DF07BFF20B17C
:102400004FF4006000210AF0C5FE25F033FB0120E7
:1024100028F0A1FA0E4A0F49A06A25F053FA28467F
:102420000AB070BDFF20D7E70725F8E7AFF30080BB
:102430000DD5015520000000380B0020690345EC44
:10244000AC1E002049010200BC1E0020AC1C002074
:102450006D780300AD7803000348044B834202D03B
:10246000034B03B118477047503200205032002010
:1024700000000000064B0749C91A891048BF013106
:10248000491003D0044B0BB101481847704700BFF7
:1024900050320020503200200000000010B5064CE1
:1024A000237843B9FFF7D8FF044B13B10448AFF3C7
:1024B00000800123237010BD602700200000000071
:1024C000404F040008B5054B1BB105490548AFF363
:1024D0000080BDE80840FFF7CDBF00BF000000004E
:1024E000B00D0020404F0400A3F5803A704700BFB4
:1024F000174B002B08BF134B9D46FFF7F5FF00213C
:102500008B460F461348144A121A29F018FB0E4B3B
:10251000002B00D098470D4B002B00D0984700208F
:10252000002104000D000D48002802D00C48AFF334
:1025300000801AF0B3FA200029001FF016FC19F0F1
:1025400025FF00BF000008000000000000000000A0
:10255000C80A0020C80A0020E02C0020000000006B
:1025600000000000012810B5044628D11F4B1A783E
:1025700042B100221A7000F0B7FE00F0D3FE1C4BEF
:102580001C7010BD1B4B19780029F3D11A4B1A7817
:10259000012A02D05B78012B0CD100F0A5FE00F0DF
:1025A000C1FE00F061FF0028EBD0BDE810406420C0
:1025B00000F036BF00F088FE00F0A4FEF1E702282C
:1025C000DFD100220D4BC3E90022C3E90222012220
:1025D000074B1A7000F048FF0028D2D0642000F0AA
:1025E0001FFFC82007F09EFADFE700BF6627002024
:1025F0005A31002067270020AE2B0020D40D002088
:1026000030B5002593B001463F2202A829F0B1FA67
:1026100002A88DF8475029F0E1FA044602AB0344C2
:1026200034B113F8012C611E0A2A0CD00D2A0AD0ED
:10263000554902A829F0B3FA48B900F045FE5348BD
:102640001AF070F88AE00C4603F8015DE8E750499B
:1026500002A829F0A4FA18B900F054FE4D48EFE79B
:102660004D4902A829F09BFA054628B900F03CFE26
:102670004A4B4B481D60E3E74A4902A829F08FFA0C
:10268000054628B900F04EFE474B48481D60D7E785
:10269000474902A829F083FA054670B90122454B43
:1026A0001A70454B187000F00FFE00F02BFE3B4BEC
:1026B00042481D603C4B1D60C2E7414902A829F019
:1026C0006EFA18B93B4B18703E48B9E73E4902A86C
:1026D00029F065FA20B910223C4B3D481A64AFE757
:1026E0003C4902A829F05BFA20B910223A4B3B483A
:1026F0001A64A5E70F223A4902A829F028FA0546EC
:1027000078B9384B1F220DF11701184629F031FA1C
:102710000121354AC57711700146344819F0F0FFA0
:102720001CE01122324902A829F011FAF8B9314C03
:102730003149631C651E00932A4623460DF119009A
:102740001AF0E0F8032810D10122274B14F8011CDD
:102750001A702A4863786A7819F0D2FF284B1B68F0
:10276000986819F015FF13B030BD264868E7264970
:1027700002A829F014FA08B9244861E7002CF2D025
:10278000234802A9CAE700BF90FD030098FD03009B
:10279000B4FD0300BDFD0300D5FD0300D00D0020F6
:1027A000DEFD0300FAFD0300CC0D002004FE030053
:1027B0001CFE0300662700206727002027FE030079
:1027C00046FE030056FE030073FE030000D00350D4
:1027D00081FE030095FE030000E00350A4FE030009
:1027E000B9FE03003A3100205A310020C9FE03002F
:1027F000E9FE030064270020FBFE03000AFF03003C
:102800003430002033FF03005AFF030069FF030048
:1028100084FF030073B51C480122006801AB0DF171
:10282000030120F0DBFA0546D0B9019BC3B19DF846
:102830000320164C0A2A237801D00D2A12D17BB12D
:102840000026134D13482946EE5419F059FF124B38
:102850001B68986819F09CFE2846FFF7D1FE267089
:1028600002B070BD3E2B04D8591C21700849CA54CF
:10287000F6E70A4819F056FF074B1B68986819F0ED
:1028800087FE2570ECE700BFFC2E002068270020A3
:1028900069270020A1FF030034300020B5FF0300AA
:1028A00000B58BB068460E4929F083F90D4B0E4AEE
:1028B000112105A819F0F2FF1FF044FA0021084683
:1028C00000F0ECFB68461FF046FA0121002000F002
:1028D000E5FB05A81FF03FFA0BB05DF804FB00BF55
:1028E000D2FF03003A310020DDFF03002DE9F04361
:1028F0008BB000F005FC0021434A08461FF0AAFAFD
:10290000424B1D78C5B102210020414A1FF0A2FAB6
:10291000032100203F4A1FF09DFA04213E4A002077
:102920001FF098FA05213D4A00201FF093FA00F0AD
:10293000FBFB0BB0BDE8F083394B1C7864B102217E
:102940002846384A1FF086FA0321334A28461FF0EA
:1029500081FA0421344AE7E74FF00509334F01219A
:102960002046334A1FF076FA02212046314A1FF0F2
:1029700071FA3B782021C3F10506F6B2CDE9006972
:102980002D4A02A819F08AFF0321204602AA1FF04F
:1029900061FA7B782021A9EB03085FFA88F8274ABF
:1029A000CDE9008902A819F079FF0421204602AA86
:1029B0001FF050FABB782021A9EB0305EDB2CDE959
:1029C00000591F4A02A819F069FF4946204602AA89
:1029D0001FF040FA06212046164A1FF03BFA7A788B
:1029E0003B7846441344BA78354413440F22EDB281
:1029F000202101920095134ADBB202A819F04EFF84
:102A00000721204602AA90E7E0FF03006627002086
:102A1000EFFF0300000004000E0004001C0004008F
:102A2000672700202E0004004100040063270020D7
:102A300053000400660004007A0004008F000400C4
:102A4000A4000400B900040010B5054C23782BB194
:102A5000FFF726FFFFF74AFF0023237010BD00BFDA
:102A60005A310020042208B511460023012004F049
:102A7000F1F800F0C7FC1FF0F8F81FF0FCF800F0C8
:102A800005FC1FF0EFF91FF02DF91FF07CF9084845
:102A900000F0B0FA0122074B1A70FFF7D5FF00F0E3
:102AA000E3FC20B1BDE80840C82000F0B9BC08BD77
:102AB000652501005A310020874A2DE9F34113684A
:102AC000864D01331360FFF7A5FE00F0ABFA00F06E
:102AD000B5FB00F05DFA2B782BB100F0C5FC10B10E
:102AE000C82000F09DFC7E4B7E4C1E782278012E83
:102AF00022D12B784AB12B780BBB00F0B5FCF0B19A
:102B00004FF47A7000F08CFC19E0C3B9267000F025
:102B1000DBFB00F0F7FB744AD3680133D360734BDF
:102B20001E70734B1B78FF2B06D001A800F0A4FB8E
:102B3000032101A800F024F92378002BDBD16D4E8E
:102B40006D4F33783A789A4221D0DFF8D081002B4C
:102B500068D06A4819F0E6FDD8F80030986819F096
:102B600017FD00F081FC10B1642000F059FC2378BF
:102B70005BB92B784BB95C4B1A6801321A609A68C2
:102B800001329A600122594B1A7033783B705C4FC6
:102B900073783A789A4222D0DFF88081002B66D091
:102BA000584819F0BFFDD8F80030986819F0F0FCCB
:102BB00000F05AFC10B1642000F032FC237863B9B5
:102BC0002B7853B9484B5A6801325A609A680AB157
:102BD000013A9A600122454B1A7073783B70237852
:102BE000C3B92B78B3B9484F3B68002B64D02DF0A4
:102BF0007BF83B68984208D396F80080B8F1000F44
:102C000003D100F071FBC7F80080237813B92B784B
:102C1000002B51D0FFF718FF642002B0BDE8F0414F
:102C200006F080BF394819F07DFDD8F8003098686B
:102C300019F0AEFC00F018FC10B1642000F0F0FBBD
:102C40002378002BA1D12B78002B9ED12DF04CF8AE
:102C50002F4B80461B78C3EB431203EB8203DB0050
:102C600098B22CF06BFC284B404418608DE7294843
:102C700019F058FDD8F80030986819F089FC00F078
:102C8000F3FB10B1642000F0CBFB2378002BA4D120
:102C90002B78002BA1D12DF027F81D4B80461B78F7
:102CA000C3EB431203EB8203DB0098B22CF046FC2B
:102CB000194B4044186090E7174C2368002BA9D0AB
:102CC0002DF012F823689842A4D37578002DA1D175
:102CD00000F028FB25609DE7C80D00206627002036
:102CE000AC2B002067270020D40D00205A31002093
:102CF00028320020EC0D002062270020CE000400C6
:102D000061270020E0000400D00D0020D70004005F
:102D100023320020EA000400CC0D002034300020D3
:102D200013B5104C204611F06DFF08B100BEFDE751
:102D30000221207811F0A0FF034608B100BEFDE794
:102D4000A02200901146207811F074FF08B100BE57
:102D5000FDE70221207811F0A3FF08B100BEFDE7D6
:102D600002B010BD273200200A4604490346087805
:102D7000FF2802D01B210FF0B3B870472832002083
:102D80000A46044903460878FF2802D024210FF0A0
:102D9000A7B8704728320020F0B503686F4A23F4C3
:102DA0007F4323F007039342044687B000F0B880C6
:102DB0000CD8A2F18272934231D002F18072934218
:102DC00045D0674A934225D007B0F0BD654A93428B
:102DD00058D002F180729342F6D1C379012BF3D11E
:102DE0000389012BF0D1B0F805301B2B06D105A8C3
:102DF00000F032F9022105A8FFF7B6FFB4F805305C
:102E0000242BE1D105A800F037FA042105A8FFF72B
:102E1000B7FFD9E707B0BDE8F040FFF781BF037BFC
:102E2000514D64202B7000F0FBFAC82006F07AFEAA
:102E3000642000F0F5FA00234FF4C872CDE90133A5
:102E4000009228215022287811F03EFFBCE7FF2293
:102E5000454B64201A7000F0E3FAC82006F062FEC9
:102E6000642000F0DDFAC82006F05CFE642000F06B
:102E7000D7FA3E4B0221187811F012FF0028A3D098
:102E800000BEFDE7B0F80550867AEDB21E2D00F1C8
:102E90000B0717D164220021354828F050FE632E1D
:102EA0003246394628BF6322314828F08AFE012283
:102EB000304B1A7000222946207907B0BDE8F04057
:102EC0000EF0F6BF202D0BD1642200212A4828F0F5
:102ED00036FE632E3246394628BF63222648E4E791
:102EE000222DE7D1012EE5D9C37A067B012B0DD126
:102EF00000F0EAF9012E0ED100F004FA00F0B4FA65
:102F00000028D7D0322000F08BFAD3E7002BF1D184
:102F100000F0EAF9EEE7002EF0D100F003FAEDE759
:102F2000B0F80550EDB21B2D0CD105AE304600F0C7
:102F300093F800220223CDE90062294620790EF0A1
:102F40008DFF41E7242D7FF43FAF05AE304600F002
:102F500093F900220423CDE90062EEE7A0000A0104
:102F6000A0000100A0000A02283200202732002021
:102F7000BF3100205A3100205B310020034B586FD5
:102F80006FEAD01000F00100704700BF00C003508E
:102F900038B5FFF7F3FF144D2B785A1E53425341B7
:102FA000834205D0114B68B101222A7000221A60B9
:102FB00000242B782046012B01BF0C4A13680133F3
:102FC000136038BD1B682870132B07D90224084BE7
:102FD0001B68002BEDD020469847EAE7022BE7D983
:102FE000034B01241B68F4E7A9270020E80D00200B
:102FF000E40D0020014B1860704700BFE40D002075
:10300000024B586FC04300F00100704700C00350EE
:10301000034B586F6FEA900000F00100704700BF4B
:1030200000C0035070B5FFF7EBFF0646FFF7F0FF57
:10303000084C054626B1237813B92CF055FE606084
:1030400025B1637813B92CF04FFEA060267065702F
:1030500070BD00BFEC0D0020024B1A7802705B7847
:1030600043707047EC0D00207FB50A4B8DF80000CF
:1030700001930123ADF80C300023ADF81430064B5A
:1030800001A91868CDF808D000F0A8FF07B05DF8D6
:1030900004FB00BF4E000100E02E0020012928BFE4
:1030A0000121084B82B0019301F108030DEB0301EC
:1030B00011F8043C184460F07F00C0B202B01EF06A
:1030C0000EBE00BF004014547FB500230A4A8DF89D
:1030D000003001920222ADF81430084B8DF8010047
:1030E00001A91868CDF808D0ADF80C2000F076FFE3
:1030F00007B05DF804FB00BF78000100E02E00205F
:103100004FF4806208B50021044828F018FD002320
:10311000034A1370034A137008BD00BFAC27002098
:10312000AB270020AA2700202DE9F047B0244FF05C
:10313000000886B0174DDFF86490174E00AF2046A8
:10314000FFF7C2FF0020FFF7BFFF1020FFF7BCFF13
:10315000EA46A2B0684640232946802200F8013B97
:1031600028F02FFD812301343068391DE4B2C7F8FF
:1031700008D0C7F80490BB81A7F8148000F02EFF98
:10318000B82CD54605F18005D9D11837BD46BDE824
:10319000F08700BFAC270020E02E0020780001005F
:1031A000030605D407299FBF024B1870024B197004
:1031B000704700BFAB270020AA270020A0F1200302
:1031C0005E2B88BF20202038F0B5C0B2124C00EB37
:1031D00080002044002425461049114A0B781278BB
:1031E000104E03EBC2121F0606D4075D551CB754E0
:1031F000AAB201250133DBB20134052CF3D105B1AC
:103200000B7091F900000B78002804DB00240548BE
:10321000013384540B70F0BDF4000400AB27002090
:10322000AA270020AC270020034B586F6FEA9010AC
:1032300000F00100704700BF00C0035038B5FFF731
:10324000F3FF0A4D04462B785A1E534253418342E2
:1032500006D0287028B1064819F064FA01236B7073
:1032600038BD044819F05EFA6C70F9E7AC2B002009
:10327000CF020400E7020400034B1A7802705B7867
:103280004370002383707047AC2B002038B50025B5
:10329000002304220121022003F0DCFC002304228D
:1032A0000321022003F0D6FC064C5A220121022001
:1032B0001EF0DEFD5A220321022025701EF0D8FDEB
:1032C000657038BDAE2B002010B5064C2378012B5D
:1032D00006D00022012102201EF0CAFD0123237026
:1032E00010BD00BFAE2B002010B5054C237833B1C4
:1032F0005A22012102201EF0BBFD0023237010BDC5
:10330000AE2B002010B5064C6378012B06D00022AE
:10331000032102201EF0ACFD0123637010BD00BF2D
:10332000AE2B002010B5054C637833B15A2203212F
:1033300002201EF09DFD0023637010BDAE2B002007
:103340007FB50368264A23F47F4323F007039342A3
:1033500043D1002108221220224B0EF069FD0146C4
:1033600008B100BEFDE7032214201F4B0EF060FDE4
:10337000014608B100BEFDE7052216201B4B0EF0EA
:1033800057FD08B100BEFDE70DF1070102A811F0DD
:10339000D7FC014608B100BEFDE7BDF80C3008229D
:1033A0005BBAADF810309DF80B3018208DF8123054
:1033B000FF238DF81330FE238DF814309DF80A306A
:1033C0008DF81530BDF808305BBAADF8163004AB97
:1033D0000EF02EFD08B100BEFDE707B05DF804FB5E
:1033E000A0000100F5020400FE0204000203040034
:1033F0000123024A1361024A1370704700E0035030
:103400002932002008B5002304221946184603F08B
:1034100021FC0122014B1A7008BD00BF2932002097
:103420001FB50D4B1A789AB100221A7001220B4B6E
:1034300003A91A612CF094F8034638B9CDE90000CD
:10344000074A039907482CF006FC10B100BEFDE7BF
:10345000042005B05DF804FB2932002000D00350A1
:10346000F1330100F80D0020014B1878704700BFC0
:103470002932002009480A4B4FF480721860094B2A
:103480001B680360084B4360084B83600023C0E95E
:1034900003320376436104F0F7BF00BF180E00202B
:1034A000380E00206019002066060400740604002F
:1034B00010B5234C02F0FAFE03F0B0F8236F0120A0
:1034C00023F0070343F00303236703F0D1F81D4BF8
:1034D00000209B6A9B075EBF01221B4B9A62D4F8B7
:1034E000203123F0030343F00203C4F82031D4F861
:1034F000243123F0070343F00203C4F82431D4F845
:10350000403123F0030343F00203C4F84031D4F800
:10351000603123F0030343F00203C4F86031D4F8B0
:10352000403223F0030343F00203C4F84032D4F8DE
:10353000003223F0070343F00203C4F8003210BD49
:103540000080005000C0005000E0005008B503F0BB
:1035500003FF01280ED1154B04205A6E4FF480232F
:103560001349520358BF134A4B6601F510410862D4
:1035700058BF536605F08EF800F062FA05F006F8C1
:103580001FF002FC05F04AF805F010F81FF00BFCE4
:10359000FFF78EFF05F036FC00F048FA00F002FB62
:1035A00002F0E0F9BDE8084006F004B900800050E0
:1035B0000090005000A0005008B504481FF0EBFB3D
:1035C000BDE80840024800F0A7BC00BFAC070400FB
:1035D000CC2E0020064B1B681A7A022A04D812B19E
:1035E0001B68044A13607047032AF9D0704700BF74
:1035F000E42E00203C0E002030B51A4D8FB007ACF1
:103600000FCD0FC495E8070084E807000E220021C3
:103610000DEB020028F093FA4FF48012124B01A92F
:10362000CDE901233E238DF80C303F238DF80D307A
:103630000E4B07AA04932023059301230C488DF811
:1036400019300C4B05F0F6F804469DF81A304FF48B
:10365000E130002B0CBF032100211EF0F5FC2046B9
:103660000FB030BD800604003400035AB02B002098
:10367000B00E0020400E002029B9074B18680368DF
:103680004BB105F07DBB022905D8034B18680368D0
:103690000BB11FF0F0BD7047F82E002008B50449AB
:1036A000044806F05FF8BDE80840FFF7A5BF00BF7B
:1036B000002F0020D40E002001481FF0BBBB00BF2C
:1036C000B00E0020014B1A6A18681047B00E002097
:1036D000044B834205D1044B1B7813B1C8B211F0DF
:1036E0001DBB7047DC0E0020D02B002030B500251C
:1036F0000368354A23F47F4323F0070385B09342E0
:1037000004460295ADF80C5037D002F58022934262
:103710000CD0A2F18272934253D12C4B1B78002B18
:103720004FD005B0BDE830401FF0A1BEB0F8053065
:10373000282B46D1FF2304A91A4611E903001EF0E5
:103740003EFC012814BF41F2FC15204B4FF028012C
:1037500008BF187005F0FC0220790EF0A9FB08B133
:1037600000BEFDE71A49009023791A4A09681A48F1
:1037700000F070F828B300BEFDE7B0F80530B7EEF2
:10378000047A07EE903AF8EE677AB0F8073067EE01
:10379000877A013307EE103AB8EEC77A67EE877A78
:1037A000B1EE047A67EE877AFAFE677AFCEEE77A82
:1037B00017EE903AB3F57A7F38BF4FF47A73044A24
:1037C000136005B030BD00BFA0000602D02B002062
:1037D000082F0020D1360100DC0E002038B5054648
:1037E0002CF0BEF800230B4A14685CB1AC4206D141
:1037F000A96A6BB199622CF0AEF8012007E023466C
:10380000A46AF2E7002DF3D02CF0A5F8204638BDCD
:103810001160F0E7140F002010B50446B0B12BF092
:10382000F3FD2046FFF7DAFF10B194F82C300BB906
:10383000002010BD064C2368002BF9D02CF090F826
:103840002368013B23602CF086F8F1E72220F0E7A3
:10385000180F00202DE9F04385B0054691469846A3
:103860000E469DF8307009B9002F5CD12846FFF74D
:10387000D3FF0446002836D185F82C00686306F093
:103880006DF9864233D92BF053FE2146844640F22F
:10389000E7304FF47A720023E6FB0C0118F0E6FBE8
:1038A0004FF0FF32002318F0E1FB2B46E88611466B
:1038B0002846CDE900441D4A2CF0F1F9044690B9A0
:1038C000C5E9089885F82D702E632CF049F8184A40
:1038D000136833B31A469B6A002BFBD19562002311
:1038E000AB622CF038F8204605B0BDE8F08347B154
:1038F0002B4631462846CDE900440C4A2BF07CFE8D
:10390000DCE7304603A92BF02BFE04460028EAD161
:103910002B462846CDE90077044A03992CF09BF901
:10392000CCE71560DBE72124DDE700BF3539010076
:10393000140F002091F82C3013B50C4683B98B8EF0
:10394000CA8E93420ED243B9CDE9003320460B46CE
:10395000124A4FF0FF312CF062F9A38E0133A38697
:1039600002B010BD52B191F82D3093B101230093F4
:10397000D1E908232046096BFFF76CFF012384F887
:103980002C30074B1A6801321EBF1A6801321A60C8
:10399000E6E708462BF038FDF0E700BF35390100B7
:1039A000180F00202DE9F041154E336833B34FF066
:1039B0000008144F2BF0D4FF05463C6824B9284674
:1039C000BDE8F0412BF0C7BF94F82C30A3B13368A9
:1039D00084F82C8013B13368013B336094F82D30A8
:1039E00013B92046FFF7FAFE28462BF0B4FFD4E9BE
:1039F000083120469847DDE7A46ADFE7BDE8F0819B
:103A0000180F0020140F0020034B1B68002B14BF5D
:103A100004200120704700BF180F0020024B1868D7
:103A2000B0FA80F040097047180F002008B503482D
:103A30001FF0B1F9BDE808401EF070BAAC070400F1
:103A400001481FF0A8B900BFAC07040007B5082063
:103A50001EF02AFB02238DF80030054B68460193C7
:103A60001EF0B6FA082003B05DF804EB1EF027BB89
:103A7000006A18100348044A0449121A92101EF0F2
:103A8000F3BA00BF4021010020230100E02C0020F8
:103A900008B500F02FF8FFF7EDFF124B12498B42EB
:103AA00012D30020114B12498B4218D3FEF720FD90
:103AB000186850F82240586840F82240013298684F
:103AC0008242F5D30C33EAE70022F8E71C6844F899
:103AD000220001325C68A242F8D30833E4E70022F6
:103AE000F8E700BF484F0400544F0400544F04004F
:103AF000544F04004FF40041134B144A70B59A60C0
:103B0000D3F88820124D42F47002C3F88820114A7D
:103B100005F5005491664FF0FF3222664FF6DF72D2
:103B200062660222C3F8D020BFF34F8FBFF36F8FBE
:103B30004FF44036032004F0F5FD0320E66004F066
:103B4000D5FD2E6170BD00BF00ED00E0002001003A
:103B50000080004400900050054B1860054B1B6F1F
:103B600003F00703032B01D12AF0D2BD704700BF39
:103B7000182F00200080005000239B6AB3F5903F6F
:103B800003D21968064A914203D000230370836070
:103B90007047012202709A689B694260F7E700BF94
:103BA00007B0CD5E00239B6A10B5B3F5903F11D2EC
:103BB00019680A4A91420DD1094C227812F0FD0F82
:103BC00001D0002010BDDB6998470028FAD10123FD
:103BD0002370F6E74FF48170F4E700BF07B0CD5EC5
:103BE000D12B0020024B034A1A601FF0E2B800BF3D
:103BF0000000002002020FF0BFF34F8F0549064B73
:103C0000CA6802F4E0621343CB60BFF34F8F00BF7A
:103C1000FDE700BF00ED00E00400FA05002307B552
:103C2000294801931FF0B7F84FF440730122042193
:103C30006846ADF8003000F0C3F80122234B0520A0
:103C4000C3F8442401A92BF067FF002839D1204B89
:103C5000D3F8F02042F00102C3F8F020D3F8FC20A2
:103C600042F08072C3F8FC201A4AA3F55D431A6043
:103C7000019B194A03F5D52303F2FC43B3FBF2F38E
:103C8000164A013B13610223C2F8F0304FF48073EF
:103C9000C2F804334FF06043114AC3F8B02F114A01
:103CA000C3F8802ED3F8002E42F48072C3F8002EA1
:103CB000FF2283F82020D3F8002E22F48072C3F86C
:103CC000002E03B05DF804FBAC07040000D00350E5
:103CD00000ED00E0FF030040F8590D00000004E093
:103CE00055CEACC5090001004FF06043D3F8802EDB
:103CF00030B5D20715D501240B4D8440D5F8FC20F2
:103D000042F08072C5F8FC20D3F8002E2243C3F89D
:103D1000002E53F82020002AF0D003F820100020B5
:103D200030BD1120FCE700BF00ED00E02DE9F041BF
:103D300004460C254FF00108124E0CB314F001009C
:103D40000BD0002024F0010405FB00625768002F0F
:103D5000F3D09168C0B2B847EFE72246013020287F
:103D60004FEA520201D0D307F8D508FA00F20F2823
:103D700024EA0204E8D9103805FB0062B432E5E712
:103D8000BDE8F0811C0F002008B50C481FF003F8B7
:103D9000192004F0B9FC28B1192004F0C3FC192043
:103DA00004F0A4FC1A2004F0AFFC28B11A2004F09F
:103DB000B9FC1A2004F09AFC002008BDAC070400EE
:103DC0002DE9F0410E461746054610B30F2922D8BB
:103DD0000378DBB1013BDBB2022B1CD8104AD35C69
:103DE0006A78D340DB0716D50E4BD3F81043A4B93D
:103DF0002BF0B6FD80463A462846314603F0C8FA15
:103E000040462BF0A8FD2046BDE8F08140F2FF13AC
:103E1000E6E72224F7E72124F5E70224F3E700BFD1
:103E2000EC06040000C0035010B5044608B3037844
:103E3000E3B1013BDBB2022B1DD8104AD35C6278A0
:103E4000D340DB0717D52BF08BFD01226178237857
:103E50008A4030214B4341F2100103F1A04303F5A6
:103E600070335A502BF077FD002010BD40F2FF1345
:103E7000E5E72220F9E72120F7E700BFEC06040080
:103E800010B5044608B30378E3B1013BDBB2022B63
:103E90001DD8104AD35C6278D340DB0717D52BF0CE
:103EA0005FFD0122617823788A4030214B4342F242
:103EB000100103F1A04303F570335A502BF04BFD72
:103EC000002010BD40F2FF13E5E72220F9E7212092
:103ED000F7E700BFEC06040008B503F04FFA054B06
:103EE00000F0553020F05020C3F82004BDE8084011
:103EF000FFF71CBF00E0035008B503F03FFA054B85
:103F000000F0AA3020F0A020C3F82004BDE808404B
:103F1000FFF70CBF00E0035070B503682B4A04465E
:103F2000934286B04ED02A4A934249D1012529486E
:103F30001EF031FFA3880122ADF80030E3880A218A
:103F40006846ADF80430FFF73BFF01220A2101A8C3
:103F5000FFF736FF0A266846FFF792FF642005F058
:103F60005DFE6846FFF760FF642005F057FE013EE6
:103F7000F1D103212B0103F1A04202F57032C2F806
:103F800090146079217903F1A04341EA0041C2F81D
:103F90009414E179A27903F5703342EA0142C3F83F
:103FA000982440F20113ADF80830E36820680493C8
:103FB000A36802A90393237C8DF8143002F0C8FE95
:103FC00006B070BD00250448B2E700BF0000015AEA
:103FD00000800650A4070400A807040038B5054671
:103FE00002F0F2FF044C012801D1013C00D138BDA0
:103FF000284602F0CFFEF6E7E19304002DE9F04FEA
:104000009A46564B85B01B7806460F461546DDF896
:104010003C909DF844B0DDF85080002B00F0978074
:10402000072A00F296800E9B002B00F09280B9F1D7
:10403000000F00F08E80129BB3F5006F00F38980B3
:10404000012803D1109B002B00F08380444B03EB2D
:1040500005131B7B002B7ED0424C102200216846AA
:1040600027F06DFD04EB45141022A7BB394620460E
:1040700027F065FD43F210036380BBF1000F03D10D
:10408000E37843F00303E370364A0E9B02EB451CD2
:10409000CCE90193129B6901581E9DF84C30C0F386
:1040A0000A0003F003039B0643EA001E53582E4800
:1040B000012E00EA03004EEA0003CDF800A05350A1
:1040C00017D0B8F1000F2ED19CF8023068F304131A
:1040D0008CF8023027E00021204627F030FD4FF415
:1040E00044736380BBF1000FCED1E37843F030031B
:1040F000C9E713230CF1100ECCF80C309CE80F002C
:104100008EE80F006FF00301DCF81C20109B61F3B8
:104110009F02012FCCF81C20CCF8143003D1CCF82E
:104120001890CCF8043000270D4A290102EB051342
:1041300042F80180159A28465A60694622469F60D7
:104140005E7302F0D9FF384605B0BDE8F08F07482E
:10415000FAE70748F8E70748F6E700BFD22B002048
:1041600084110020841000200F80FFF3028000F0F3
:10417000018000F0078000F038B5124B05461B782F
:10418000DBB1E0B12BF0ECFB0F4A00231146147BAE
:1041900054B92B6001251A0101EB03131D738C50D8
:1041A0002BF0D9FB204638BD0133082B02F1100259
:1041B000EDD12BF0D0FB0548F5E70548F3E70548BE
:1041C000F1E700BFD22B002084110020048000F012
:1041D000028000F0018000F038B52BF0C1FB002315
:1041E00005460B4A147B6CB90133082B02F110020F
:1041F000F8D102F02DFF074B28461C702BF0ABFBCB
:10420000204603E028462BF0A6FB034838BD00BF3C
:1042100084110020D22B0020058000F00D4B10B53A
:104220001B78044693B1072812D82BF099FB0A4B50
:1042300003EB04131A7B2AB100241C732BF08BFBB5
:10424000204610BD2BF087FB0448FAE70448F8E746
:104250000448F6E7D22B002084110020068000F0ED
:10426000028000F0018000F0154B13B518680023A0
:1042700001908DF804302BF073FB124B1C7824B1A5
:104280002BF069FB104802B010BD01221A702BF010
:1042900062FB0E4B01A81C731C7783F82C4083F83B
:1042A0003C4083F84C4083F85C4083F86C4083F8D2
:1042B0007C4008238DF8073002F0EEFE2046E2E74E
:1042C000EF060400D22B0020038000F084110020B0
:1042D000F8B50D4D2D7885B1072810DC0B4D060182
:1042E00005EB0014277B67B1AB510025069BA56049
:1042F000636002F001FF2846F8BD0548FCE7054869
:10430000FAE70548F8E700BFD22B0020841100200F
:10431000028000F0018000F0078000F00A4A08B532
:1043200012785AB107280BD8084A02EB00131B7BFE
:1043300043B1002102F0A2FE002008BD0448FCE7C2
:104340000448FAE70448F8E7D22B00208411002043
:10435000028000F0018000F0078000F00A4A08B5F2
:1043600012785AB107280BD8084A02EB00131B7BBE
:1043700043B1012102F082FE002008BD0448FCE7A1
:104380000448FAE70448F8E7D22B00208411002003
:10439000028000F0018000F0078000F0184B2DE94A
:1043A000F0411F6D5B6D1F4000D5FEE70126002523
:1043B000144CDFF85880374218D02368C8F8506092
:1043C000A3B1A168284601316268A1609847637B68
:1043D000012B0BD150B90C4B03EB45131A7B60F347
:1043E00041021A731A7F60F341021A770135082DD2
:1043F0004FEA460604F11004DDD1BDE8F08100BFAC
:10440000000004508411002084100020002004507B
:104410002DE9F04F144606460D469B46C36B87B008
:1044200001225B6902A960689847F36B01225B690E
:1044300003A92846984702A81EF05CFA074648B12F
:104440000023A37563754FF0FF33A360002007B00E
:10445000BDE8F08F03A81EF05AFA0123A375237E4E
:1044600004EBC303DD611F846368AB420ED120609F
:1044700003A81EF06EFA4FF0FF332075A360237D72
:10448000043B022B26D80023A375DFE723681A1A02
:1044900053425341A37503A81EF05BFA237D834268
:1044A00018BFA77503A81EF036FA074602A81EF02B
:1044B00032FA874218BF002303A818BFA3751EF065
:1044C00032FA074602A81EF02EFA87421CBF0023CC
:1044D000A375D4E703A81EF01EFA80B1F36B022285
:1044E00028465B6904A9984704A81EF023FA0346EE
:1044F000207D032839D8DFE800F03838040903A804
:10450000F3E7CC22237E04EBC3031A8401F0A2FA62
:10451000109B187003A8277E1EF0F1F904EBC70763
:1045200087F82200237E03A804EBC303B3F820908E
:1045300093F822701EF0EFF9804603A81EF0F3F9FD
:104540008246B8F1000F15D0F36B022228465B6952
:1045500004A9984704A81EF0B2F96075637D6BB991
:104560000023A3754FF0000838E0227E04EBC2025E
:104570001384CBE703A81EF08DF9EEE794F81680BC
:10458000B8F1000FEED0B9F1000F09D1DFB101236E
:10459000627EE375002A44D19F4218D1677614E009
:1045A000736C05EB0A02594285EA020008421CBFFF
:1045B0000021A175591E0A409B1A9945D0D8A37DA8
:1045C000002BE3D1CEE7E37D43B94FF000084B4623
:1045D0005246294630461DF0CBFEA060A27D12B1A6
:1045E00023694B4423611449237E097899421ED9DB
:1045F00001332376BBF1000F1BD0D2B1E37DC3B1F1
:10460000B8F1000F15D1032F13D0A1684B1C10D0A7
:10461000109B2246009330460123FFF7F9FEA07558
:1046200007E0012FDAD0032F08BFA376CDE70023E0
:10463000A375A07D0BE700BF140704002DE9F04F20
:104640000E46984600238BB004464FF0FF311046CB
:1046500017468DF8133001F0E7F9B6F5801F3BD30C
:10466000B21C53D1E56A6B1C57D12046616A1DF01C
:10467000C5FD0546B31C18BF0123DFF81091019357
:10468000636A626C0293236805A902FB053AE36B37
:1046900005225B695046984705A81EF0C6F91EF032
:1046A000E9F950461EF0F1F94FF0000B8246014641
:1046B0004B1C05D0636C81EA0A025B42134232D084
:1046C000294620461DF09AFD029BAB424DD0BBF11E
:1046D000000F4DD10546D3E7314605AA04F1080085
:1046E0001EF056F80146481C10D0384601F09CF9DF
:1046F0000122394620460DF113031DF08BFE28B12F
:104700009DF8133088F80030002003E0237C002B54
:10471000A8D12D200BB0BDE8F08F2368ED1A636C93
:10472000B5FBF3F5A6E7484601F07EF90DF113035A
:1047300049462046019A1DF06DFE034690B1B21C19
:1047400003D0D9F80020B2420CD19DF81320039376
:104750000D4B88F8002049461A68384627F031FA90
:10476000039B9B46D9F80810A2E7BBF1000FD0D0FD
:10477000B6F5801FC8D2314698F800307A6804F147
:10478000080001F07FF8BFE7100704007818002048
:104790002DE9F3410446174698460E46194D816AA5
:1047A000E36A8B422AD04B1C18E0284601F03CF902
:1047B0000122294620460DF107031DF02BFE30B1E2
:1047C0004346294620469DF80720B847B0B1A9685E
:1047D0004A1C05D0012E0AD0E36A9942E5D10DE0CA
:1047E000696820461DF097FD012E0146D8D16B68FF
:1047F00081EA0302636C5B421A42D1D002B0BDE889
:10480000F08100BF4C1800202DE9F041036B904669
:10481000826B07689A4288BF8363426C436A90B098
:1048200002FB0377C36B0E46052201A95B690446B0
:104830003846984701A81EF0F8F801280146307064
:1048400057D0656CE26B2368606AD2F814C005FB30
:104850000030052206A9E04706A81EF0E6F8012868
:104860004FF0000523D0D4E90A3201219342CDE96B
:104870000B458DF834800E958DF83C102AD11946E1
:1048800020461DF048FD236B626C14339B1AE062D6
:1048900023630C9B53B99DF83C303BB1626A616C59
:1048A0002368E06B01FB02311EF077F80C9DE36B8F
:1048B00005225B6901A93846984701A81EF0B5F8A2
:1048C00030702846236BA26B9A4288BFA36310B056
:1048D000BDE8F081237C33B91C490BAA04F1080020
:1048E00001F01EF8D5E72046194A0BABFFF750FF41
:1048F000CFE7237C23BB2246164904F1080001F0D0
:104900000FF8616A20461DF09AFC616A421C20463D
:104910001DF063FC054620B9236B626C1344143B05
:1049200023632046A16A1DF0F6FC2368A062C01A2A
:10493000636CB0FBF3F0606220461DF02FFDB6E71C
:1049400000232046044AFFF723FFDAE71D51010048
:10495000995001009D2403003924030073B50D46CE
:10496000D11E4A421C461B7E4A419A4226D12968E2
:104970002368994222D3636899421FD8114E0DF1E2
:1049800007033246FFF75AFEC0B972686B689A4255
:1049900014D19DF80730DA1E53425341227E9342D0
:1049A0000CD1636901336361D4E90323934205D2D7
:1049B0002968A26842F8231001332361012002B064
:1049C00070BD00BFA41800202DE9F04F9A468BB0AF
:1049D0009DF85030DFF850B10293DBF8103080467C
:1049E00053450D461646C0F09980D146DBF8043099
:1049F0000193B9F1000F00F08D80D8F83C3001220E
:104A00005B6907A90198984707A81DF080FFDBF8AC
:104A10000030984240F0858007A81DF084FF0428EC
:104A2000074614D107A81DF085FF019B029A044692
:104A30003B44002A3FD1864212D91446361A4046DA
:104A400001991DF068FCA9EB04090190D1E7D8F8A1
:104A50003C3002225B69019808A9984708A8E2E760
:104A6000841B544528BF5446032C03EB0607AAEBCE
:104A7000040A4FEA94021CD9D8F83C30294638463B
:104A80005B69984724F0030304F003061F441D44A8
:104A9000002ED4D0D8F83C3001225B6908A93846F2
:104AA00098473246284608A9354427F08AF8002658
:104AB000C5E72646ECE7074600F0030203920344ED
:104AC0002A1804920593049BDD1B059BD81B039BAE
:104AD0009F420FD1002FB2D0D8F83C30012208A954
:104AE0005B6998473A46284608A926F0FEFF78B940
:104AF0003D44A4E7D8F83C30012208A95B699847F7
:104B00000422284608A926F0F0FF08B9043FDAE796
:104B10004FF0360948460BB0BDE8F08F4FF06309FF
:104B2000F8E74FF06F09F5E7D01800202DE9F041C4
:104B30000F4616469846044688B060B390F8345045
:104B4000FDB101211DF01FFB00210E9BCDE90511D8
:104B5000CDE902379DF83C30CDF804808DF81C304B
:104B6000237C04968BB90D4901AA04F1080000F0DA
:104B7000D7FEDDE90553E06B002E08BF1D461DF092
:104B80009BFC284608B0BDE8F0812046044A01ABF2
:104B9000FFF7FEFDEDE70546F3E700BF67240300DE
:104BA0005D4901002DE9F04F99B00F4609920A695D
:104BB000416C0E931439D31DB3FBF1F3013302EBB7
:104BC000C302036B04469342C0F00D820023DFF85A
:104BD00020940D93E36A48461946079300F024FF9A
:104BE000D7E9033604930E9B022B4ED1CC2E40F016
:104BF0008A81099B002B42D0394620461DF0BAFC21
:104C0000656C079A6B1E13401490ED1AE36B01223A
:104C10005B6916A97868984716A81DF07CFE0028E5
:104C20000CBF04230823782E06933DD901230025C9
:104C30004FF0080A05933B6805990E98C9F80030B3
:104C4000C9F810601DF089FE4FEA9A031093002303
:104C5000DDF81CB089F814000B930F9308930C93A4
:104C6000616C4A1E0BEA02028B1A002E38D05544A2
:104C7000AB4240D8236B5B1A13442363ABE0049B25
:104C80001B68149308230693D0E7656C079A6B1E84
:104C90001340782EA5EB030516D8FB7D7BB9099B45
:104CA000002BB3D104230693331DAB4210D9A6B118
:104CB000082DBBD804250023AA460593BBE7099B12
:104CC000002BA3D10823EEE7099B002B9ED1D9E747
:104CD000002505954FF0040AADE704250596F9E790
:104CE0005345C7D3B0460BEB0A030393089B002B35
:104CF00018BF032313E0A3EB0A039E42B0460BEB5D
:104D00000A0228BF98469E420392EFD90123D9F8A0
:104D1000102089F81730964271D1C9F804B0089371
:104D200099F81730002B6CD099F818200899D31CEB
:104D300009EBC3030132C3F804B0A3F808809972E9
:104D400089F81820B8F1000F14D00E9B022B5BD10C
:104D50000B9B7BB90F9B4344032B0BD9E36B0122C5
:104D60009B69039814A998470546002840F03D81A7
:104D700001230B93089B16A80193059B009399F8B8
:104D800014204346396800F005FEE36B58469B69E2
:104D9000109A16A99847051E0D9B18BF5B465246F0
:104DA0000D935946434620461DF0E2FA236B08F165
:104DB0000302A3EB0A0322F003029B1AC9F80800BE
:104DC0002363002D40F011810F9BDDF80CB04344AC
:104DD000A6EB08060F93594620461DF09CFA0025C5
:104DE0008346002E7FF43CAF814A3968936804F112
:104DF0000800E36252680E9B00F044FDDEE00223EF
:104E00008DE7C9F804B09DE7099B002B30D1049BC6
:104E1000B8F1030F43440A9327D9DDE90301E36B9B
:104E20004FEA98029B6998470546002865D118F01B
:104E300003025FD0049B28F003052B440493039BDB
:104E40001D444FF0FF33049915A8159326F0B9FEC1
:104E5000E36B28469B69012215A9984705460A9BE2
:104E60000493002D86D0039B99E74246039DE8E713
:104E7000039B0A9307F120031193FB7D78689BB194
:104E800000233D7E0C9AD9B28D4211D9119903F1BC
:104E9000010C31F83310914226D9069907EBC30370
:104EA000D8690A44104403E00C9B069A1344184442
:104EB000E36B01225B6915A99847159B01221393A7
:104EC0000C9B0A9804330C93E36B13A99B699847D6
:104ED000039B0A9A43449B1A042B054607D978B9C9
:104EE000134604330A93C8E76346521ACBE70A9B7A
:104EF0000393B6E70A9B04933CE70A9B0493B2E74B
:104F00000A9B0393AFE7702604F108030393236819
:104F1000079A606CA2EB030ABAFBF0FA00FB0A30B6
:104F20001DF0B3FDE16A804620461DF0F4F9A26A47
:104F300082424AD0626CD9F80830511E0B40216B76
:104F40002568891A0B4423630D9BE0625D1BB5FB4A
:104F5000F2F5AA4536D1079BB3EB080A12D0E36BF2
:104F60004FEA9A0241469B6998478346E36A079A4B
:104F70005344E362236B03989B1A434423631DF05D
:104F8000D8FBDA462368616CE06B01FB05311DF04C
:104F9000F1FC20461DF002F920461DF0FFF92063C8
:104FA000BAF1000F11D03A69616CD31D1439B3FB0B
:104FB000F1F3013302EBC3029042A8D2304619B09C
:104FC000BDE8F08F4FF0000ADCE73A69616CD31D51
:104FD0001439B3FBF1F3013302EBC302236B9342A9
:104FE000BFF4F8ADEAE71C26E8E72E468CE700BFE1
:104FF000781800202DE9F3471E4643690446B34262
:10500000884617469DF828903DD300258DF8075017
:1050100020461DF08FF8D4F830A082450AD2236ACA
:10502000B5EB430F06D2002220460DF10701FFF732
:10503000EBFB30B39DF80730012B05D10022204651
:105040000DF10701FFF7E0FBB9F1030F06D0314680
:1050500020461DF05AF8256B854218D30D4D4FF0B0
:10506000FF31284600F0E0FC4B460022294620464E
:10507000C5E90376C5F8008002B0BDE8F047FFF748
:1050800091BD0135C4E7622002B0BDE8F0871C2065
:10509000FAE700BFA4180020032A2DE9F3410646D1
:1050A0000D4617461C4606D1237A012B23D001203A
:1050B00002B0BDE8F081DFF86080096842460DF17A
:1050C0000703FFF7BBFA60600028EDD19DF80720C9
:1050D000237A032AE8D0D8F804106A689142E3D111
:1050E000012B2969D4F80CC007D172690CEB0103BC
:1050F000934202D92074207CDAE708316144E160F0
:105100003B46012229463046FFF74CFD60600028EF
:10511000CAD00020CCE700BFA41800202DE9F3413D
:10512000089C032A1746266806D1237A012B24D02F
:10513000012002B0BDE8F081DFF8908030464246A1
:105140000DF10703FFF77AFA60600028EDD12568BA
:10515000D8F80400A96AD5F844C04840CCF100034F
:105160001840227AE1D1012A09D1E268D8F810303A
:1051700013447269934202D92074207CD9E72868CD
:10518000EB6A1B1A081AB3FBFCF3B0FBFCF083427A
:105190000BD1706CF36A421E1340326B121A134427
:1051A000284633631DF0B7F8E862D8F81020E368AA
:1051B00008321344E36001223B4604492068FFF7AC
:1051C000F1FC60600028B0D00020B2E7A4180020F5
:1051D0002DE9F04F4FF0FF334FF6FF7200250446E4
:1051E00000F10806C0E909238BB0C36205620563BC
:1051F00030460F461DF09DFA20461CF0CFFF20BB25
:10520000204639461DF04AF820461CF0C7FF20BB57
:105210005E200BB0BDE8F08FE26B2368606CD2F8C3
:1052200014C000FB0530052205A9E04705A81DF0C4
:10523000FCFB012828D1294620461DF000F8421C1D
:10524000294620461CF0C9FF0135E3699D42E3D39E
:1052500020461CF0A3FF0028D2D000254FF0FF39D4
:105260004FF6FF73CA46A846C4E90853E369984558
:1052700014D3A5EB0905012D36D84FF6FF72636AEA
:10528000934246D16720C4E71DF0F9FB0028DBD02C
:10529000294620461CF0D3FF0246D1E72368E26B83
:1052A000606C576900FB0830052205A9B84705A8BE
:1052B0001DF0BBFB834605A81DF08EFB0746584634
:1052C0001DF0D8FB68B1574538BFC4F82480B945F4
:1052D00028BFB946BD4238BF3D46BA46236A0133AE
:1052E000236208F10108C1E74FF6FF7300256362EE
:1052F000E3699D42C1D2676C2068E36B052207FB1E
:1053000005005B6905A9984705A81DF065FB0135F7
:10531000EEE7E26B676C2068694607FB030055699E
:105320000522A84768461DF057FB626A2368606C37
:10533000504D00FB02301DF0A8FB4FF0FF33A06280
:10534000E3622A466FF00101204605ABFFF776F9CC
:1053500000284FD1AD6829462046E5621CF0FAFED0
:10536000206320B92046E16A1CF0D5FFE06229469F
:1053700020461CF0D0FF0546A36A9D423CD16569DA
:10538000626CE91C143AB1FBF2F14FF0000805EB36
:10539000C1050335B5FBF2F5C1460235E369994510
:1053A0003CD3A8455AD22046616A1CF027FF00274B
:1053B000064604F1400AB84512D8626C2368694673
:1053C00002FB0639E36B05225B694846984768464D
:1053D0001DF002FB534602464946E06B1DF057FBA9
:1053E000314620461CF00AFF0137AF420646E2D3A1
:1053F00064200EE7A56AAEE7294620461CF0AAFE07
:10540000236B294603440746236320461CF083FF91
:105410000546002FB0D1C4E90B07ADE7636C2768E0
:10542000052203FB0977E36B05A95B6938469847BA
:1054300005A81DF0FAFA1DF01DFB60B138461DF0FD
:1054400024FB014620461CF085FE636C143B984209
:1054500008BF08F1010809F101099FE730461DF076
:1054600068F9002320461946034AFFF791F9002006
:10547000CFE600BFA4180020032403000023624AE3
:105480002DE9F04117680E460446136018B921252E
:105490002846BDE8F08190F834500DB309680268E1
:1054A000914240F0A98071684268914240F0A48026
:1054B000B1688268914240F09F80F168C268914271
:1054C00040F09A8031694269914240F09580B1691B
:1054D000C26B914240F0908072691D468261D7E7AD
:1054E00050222946D0F8388026F029FBD6E902124E
:1054F000336804F1080023607368C4F8388063607F
:10550000336963617369A3611DF025F9B36904F11F
:105510004000E3639B68984794F8432020B1E5611D
:10552000002AB4D05B25B3E7656C002DF7D0666820
:10553000B6FBF5F3E361002AA9D0B542F2D82268A0
:10554000B2FBF5F105FB1122002A57D105FB1363CD
:10555000002B53D120461CF0EDFDA3690433034416
:105560009E424DD340F634726369CC3B934249D896
:10557000B5F5805FD6D3032120461CF004FED4E9A4
:105580000001E36B1B6898470546E36B0220DB686C
:1055900098471DB1002384F834301DE03946204679
:1055A000FFF716FE6428054604D139462046FFF76A
:1055B0000FFE0546636C143B002DEBD1226A20469A
:1055C00002FB03F61CF0B6FDA369043303449E42BC
:1055D00006D284F834505A25E06B1CF06DFF57E773
:1055E0000123D4E90001094A84F8343013680133F7
:1055F00013601DF04AF9EFE75D2549E7592547E7B4
:105600005A2545E75F2543E70812002004120020D1
:105610002DE9FF410F4690461E46054698B390F887
:10562000343093B3B1F5801F31D21A4C02211CF0F3
:10563000AAFD2246394628460DF10F03FEF7FEFF6C
:10564000024678B101234246009339463346284644
:10565000FFF7D0FC0446E86B1CF02EFF204604B098
:10566000BDE8F0819DF80F30012BEBD12169B142EB
:10567000E8D10093414633462846FFF7A5F9044692
:105680000028DFD1E7E72124E8E71124E6E7292411
:10569000E4E700BFD01800202DE9FF410C46164674
:1056A0001F46054680B390F834307BB3B1F5801FB8
:1056B0002ED2DFF8608001211CF065FD21464246B4
:1056C00028460DF10F03FEF7B9FF044670B99DF8A7
:1056D0000F30012B11D1D8F81030BB4212D1024645
:1056E000009031462846FFF76FF90446E86B1CF03E
:1056F000E3FE204604B0BDE8F081022B14BF2D2448
:105700006024F3E76324F1E72124F2E71124F0E7B2
:105710002924EEE7D01800202DE9F04385B00C468F
:1057200017461E460546DDF8308098B390F83430B1
:1057300093B3B1F5801F31D2DFF8649001211CF0E2
:1057400022FD21464A4628460DF10F03FEF776FF5B
:10575000044688B99DF80F30012B14D1D9F81020D8
:1057600006EB08039A4213D300904346324639466B
:105770002846FFF729F90446E86B1CF09DFE2046F9
:1057800005B0BDE8F083022B14BF2D246024F3E79D
:105790006324F1E72124F2E71124F0E72924EEE75E
:1057A000D01800202DE9F3411F4600230C46164671
:1057B00005463B6050B390F834304BB3B1F5801FD1
:1057C00028D2DFF8548001211CF0DDFC214642463E
:1057D00028460DF10703FEF731FF0446A0B99DF8F6
:1057E0000730032B10D0022B0AD10123336004238E
:1057F0003B60E86B1CF060FE204602B0BDE8F08123
:10580000D8F810303060F3E72D24F2E72124F3E7D5
:105810001124F1E72924EFE7D018002030B50C4619
:10582000054685B028B390F8343023B3B1F5801F16
:1058300023D202211CF0A7FC0DF10F0321462846BC
:105840000F4AFEF7FBFE034688B99DF80F20032A96
:105850000DD003222146009202462846FFF7CAFBDC
:105860000446E86B1CF028FE204605B030BD2D2410
:10587000F7E72124F8E71124F6E72924F4E700BF2D
:10588000D01800202DE9F043466886B30568984695
:105890004FF0000CA946AE4655F83C400CF1010C07
:1058A000C4F31307013401D0B94217D066450EF195
:1058B000080EF1D12F46002403E0A64207F10807A5
:1058C00012D055F8343001340133F6D1C1F313014D
:1058D00041EA0851C7E90012BDE8F08341EA0851E6
:1058E000CEE90012BDE8F083B8F1030F03D1012324
:1058F0000372BDE8F083002303E09E4209F108092A
:10590000F5D055F833400133C4F30754032CF4D1D8
:10591000C1F3130343EA0853C9E90032BDE8F08339
:105920002DE9F0410646406882B0C0B10F4690466E
:105930000024336853F8345003EBC403C5F3075213
:10594000C5F31301013504F1010406D05B6830464C
:10595000CDF80080B84710B170688442E9D302B036
:10596000BDE8F081024B1968024B1868FFF786BD4D
:105970001C2F00203C2F002008B529F0E8FF014B28
:10598000186008BDFC180020014B186829F0DABF28
:10599000FC18002073B504462248012A00EAC11110
:1059A0009DF8185023F07C4007D9961E012E28D967
:1059B000073303F07F03194308E09DF81C300A43C6
:1059C000DB0603F0C053134343F060410023C4E9F6
:1059D00000108DF80730B5B1202221460DF10700E7
:1059E0001DF06FF81A220DF10700211D1DF069F856
:1059F000082063689DF8072043EA8263636002B071
:105A000070BD1143E2E71B220DF1070021461DF096
:105A100058F823689DF80720042043EAC2632360F6
:105A2000EDE700BF80FFFF0738B5094B0D461A6848
:105A30000021044626F083F800234FF0FF32238331
:105A4000C4E900252361A260E382A37638BD00BFCC
:105A5000100704000138C0B205289ABF014B185C3A
:105A600001207047150704002DE9F041074615464F
:105A700000240E46596888B0490A012922464FEA97
:105A8000510104F10104F8D8DC78997824031B88CB
:105A9000C90201F4006104F480540C43C3F30A0307
:105AA0005203234492B24FF000089C18274B6FEA30
:105AB0000444039325F07843ED4302A90DF1070058
:105AC0001B2202938DF807801CF0FBFF9DF8072036
:105AD000029B02A943EAC2630DF107001B2225F0D5
:105AE0007845049302958DF807801CF0EAFF9DF835
:105AF0000720029B6FEA144443EAC26305934FF008
:105B0000FF330794069307A9BB69012206F1100031
:105B10009847BB6905A90446012206F10800984789
:105B2000BB69404518BF044604A90122301D9847AF
:105B30000122404518BF0446BB69304603A9984777
:105B4000404508BF204608B0BDE8F08101009AB288
:105B5000044BD3F88420D206FBD4D3F88400C0F3DE
:105B6000811070470040005038B5184B0546D3F8F7
:105B700024010C4600F00700062823D8DFE800F0D7
:105B8000040A121A1E0E1600012305B1286004B182
:105B9000236038BD28F09CFD0523F6E728F098FD2A
:105BA0000623F2E728F0CEFD0323EEE728F0CAFD36
:105BB0000423EAE728F0C2FD0223E6E729F0BAFE53
:105BC0000723E2E700231846DFE700BF008000500C
:105BD00038B5104B0546D3F800310C4603F00303EB
:105BE000022B0BD0032B0DD0012B0FD128F0AAFDD7
:105BF000032305B1286004B1236038BD28F0A8FD57
:105C00000823F6E729F096FE0723F2E70123002098
:105C1000EFE700BF0080005038B5104B0546D3F8C1
:105C200020310C4603F00303022B0BD0032B0DD0C5
:105C3000012B0FD128F04CFD052305B1286004B1DC
:105C4000236038BD28F07EFD0323F6E728F076FDBB
:105C50000223F2E701230020EFE700BF008000509D
:105C600038B5104B0546D3F840310C4603F003031A
:105C7000022B0BD0032B0DD0012B0FD129F05CFE92
:105C8000092305B1286004B1236038BD28F060FD08
:105C90000823F6E729F053FE0B23F2E70123002047
:105CA000EFE700BF0080005038B5104B0546D3F831
:105CB00060310C4603F00303022B0BD0032B0DD0F5
:105CC000012B0FD129F038FE092305B1286004B15A
:105CD000236038BD28F03CFD0823F6E729F02FFEAD
:105CE0000B23F2E701230020EFE700BF0080005004
:105CF00073B50D4600210E4B0191D3F88041064645
:105D000004F00304012C09D0022C0CD00C460EB177
:105D1000019B336005B12C6002B070BD01A8FFF794
:105D20007BFF0F24F3E728F009FD0190EFE700BFA8
:105D30000080005038B5104B0546D3F840320C4671
:105D400003F00303022B0BD0032B0DD0012B0FD13B
:105D500029F0F2FD092305B1286004B1236038BDA4
:105D600028F0F6FC0823F6E729F0E9FD0B23F2E71B
:105D700000231846EFE700BF0080005038B5144BF1
:105D80000546D3F800020C4600F0070004281BD893
:105D9000DFE800F003090D111500012305B12860AB
:105DA00004B1236038BD29F0C7FD0923F6E728F0C8
:105DB000CFFC0823F2E729F0C2FD0B23EEE728F021
:105DC000A7FC0E23800AE9E700231846E6E700BF98
:105DD0000080005010B40D4C0B46D4F8204204F063
:105DE0000304012C0AD0022C0CD008B10021016060
:105DF0000BB100221A605DF8044B70475DF8044B4C
:105E0000FFF70ABF5DF8044BFFF72ABF0080005080
:105E1000B0F5207F1FD009D8B0F5007F15D003D88A
:105E200068B1B0F5C07F0AD000200CE0B0F5607F0B
:105E3000FAD10B4BD3F88000C0F3011003E0084BFC
:105E4000186FC0F3033001307047054BD3F8900052
:105E5000C0F30460F7E7024B186FC0F38020F2E74D
:105E6000008000504FF400320E4B014610B5002068
:105E70009A66FFF7CDFF484341F671320A490B4B52
:105E8000884294BF00200120DC69DA639A6822F41A
:105E9000401242EA00529A60E20344BF0022DA63F1
:105EA00010BD00BF00900050005A62020000035075
:105EB000420910B50FD0012A0FD00A4B0A4C022A12
:105EC00018BF234600F01F0049B103F5805301229B
:105ED00082401A6010BD1346F4E7044BF2E703F565
:105EE0000053F4E7688000506082005064800050E6
:105EF0001FB50021B0F5807F0446019100F00681B6
:105F000000F29D80612800F295801F2805D80028A6
:105F100040F0928028F0FCFBDCE0A0F12004412C52
:105F200000F28A8001A353F824F000BF155F01003E
:105F3000D9600100155F0100D9600100F96001001E
:105F4000F9600100F9600100F9600100D960010009
:105F5000D9600100B36001006D6001002F61010094
:105F6000396101006D600100D9600100D960010054
:105F7000D960010039600100396001003960010019
:105F800039600100396001003960010003610100DE
:105F90008F600100D9600100D9600100D960010063
:105FA0004D61010043610100D960010039600100C9
:105FB0003960010039600100396001003960010079
:105FC0003960010039600100396001003960010069
:105FD0003960010039600100396001003960010059
:105FE000155F010039600100155F0100155F0100B8
:105FF000155F0100F960010039600100396001009E
:106000003960010039600100396001003960010028
:106010003960010039600100396001003960010018
:10602000396001003960010039600100155F01002D
:10603000155F010080284BD0019804B010BDB0F569
:10604000A06F5ED028D8B0F5607F50D019D8B0F5D9
:10605000007F4CD004D8B0F5C07F3FF45BAFEBE7D6
:10606000B0F5207F38D0B0F5407FE5D128F050FB67
:1060700002464FF42070FFF7CBFEB2FBF0F252085D
:1060800033E0B0F5806F37D0B0F5906FD4D10021F8
:1060900001A8FFF769FDCFE7B0F5E06F51D00DD84B
:1060A000B0F5C06F43D0B0F5D06F45D0B0F5B06F4C
:1060B000C2D1002101A8FFF71BFEBDE7B0F5F06FCC
:1060C00044D0B0F5086FB7D101A8FFF781FDB3E761
:1060D00028F004FB0190AFE728F01AFB02464FF4CA
:1060E0002070FFF795FEB2FBF0F20192A4E728F0D2
:1060F000F5FA02462046F4E7002101A8FFF78CFDDF
:106100009AE7002101A8FFF765FE95E74FF0E0232D
:1061100002911B695B0705D528F0FAFA0290029BF1
:10612000019389E703A902A8FFF79AFDF7E7002189
:1061300001A8FFF795FD7FE7002101A8FFF71EFEEC
:106140007AE7002101A8FFF7F5FD75E7002101A816
:10615000FFF7AAFD70E700BF08B58020FFF7C8FE73
:10616000034B98429EBF4FF48032024B1A6708BD22
:10617000005A620200A000501FB503460020B3F58C
:10618000807F01906FD027D8382B00F082800BD809
:10619000243B092B0FD8092B0DD8DFE803F05F5FF4
:1061A0005F5F0C0C5A0C3675522B57D007D83D2B1D
:1061B0003AD03E2B72D0019805B05DF804FB802BDD
:1061C000F9D1394B1B6F03F00703013B032BF2D8C6
:1061D000DFE803F03D36393BB3F5D06F54D019D822
:1061E000B3F5A06F55D00AD8B3F5806F36D0B3F5AC
:1061F000906FE0D1002001A9FFF7B6FCDBE7B3F513
:10620000B06F26D0B3F5C06FD5D1002001A9FFF73C
:1062100027FDD0E7B3F5006FECD00AD8B3F5E06FF7
:106220003CD0B3F5F06FC6D1002001A9FFF73CFDCB
:10623000C1E7B3F5086FBED101A9FFF7C9FCBAE702
:1062400005230193B7E70323FBE70723F9E70223BD
:10625000F7E7002001A9FFF74BFDACE7002001A9FB
:10626000FFF7DAFCA7E74FF0E02302901B695B071A
:1062700005D528F04DFA0C230393039BE1E703A90E
:1062800002A8FFF7EDFCF8E7002001A9FFF776FD73
:1062900091E7002001A9FFF79DFD8CE7002001A9EF
:1062A000FFF748FD87E700BF008000504FF4002251
:1062B000034B5A66012203F580439A62704700BF80
:1062C0000090005008B5FFF757FF082811D0093893
:1062D000012802D94FF6FF7008BD4FF40012064B9B
:1062E0005A6603F5D8335B6ADB07F3D54FF4FA70CF
:1062F000F2E7024B1888EFE70090005028310020A9
:1063000008B5FFF739FF03280ABF024B4FF6FF70AD
:10631000188808BD26310020F8B504468020FFF714
:106320002BFF032800F087804FF40022424B02210C
:106330005A6645F60E03414AC2F88030404B9962D6
:10634000012103F580539962936DD903FCD4D4E9FC
:1063500000131B0543EA0163E17B94F820500B43D3
:10636000217BE77E43EA0143617B6D0143EA013310
:10637000A17B43EA811313619169D4E904031B06ED
:1063800043EA806301F000410B43A17E94F82300AF
:106390000B43217E43EA0143617E43EA012393617B
:1063A000136AE66923F00D0394F8221043EA870389
:1063B000002E2DD11362966A94F8213045EA03131A
:1063C00026F033052B4343F0010393621D4D1B4B15
:1063D0009A6D35EA0202FBD10222194DAA621A65B2
:1063E0009A6D5200FCD41A69A56822F4700242EA40
:1063F00005521A614FF00042114B9A6119B90222FD
:1064000003F580539A6278B901220F4B9A620BE030
:10641000334343F008031362936A23F033030343C7
:106420002B4343EA4103936294F824301BB1034B9E
:10643000064AC3F88020F8BD0090005000C000500C
:1064400000D000500300014000E00050F1A7FFFF22
:10645000014B93F900007047D42B0020F0B5D0E930
:1064600001434FF480061A4A4178057856664FF486
:10647000D156022702F5B8325662164E4F29776080
:106480004FF0010728BF4F2106F580567760166947
:10649000F603FCD441EA052151611B01417B43EA2B
:1064A00004230B43017B43EA41039360C37B817B5D
:1064B0001B0143EA4113417C0B43017C43EA410346
:1064C0005360837C13B16FF4D1535362F0BD00BFAE
:1064D0000090005000100250014B1880704700BF20
:1064E00028310020014B1880704700BF2631002062
:1064F0004FF4001208B5184B5A660223174A53602E
:10650000936813F48033FBD1012822D128F01AF9C3
:10651000134B984215D003F5122303F5F863984204
:1065200013D0104B00EB8002400AB3FBF0F3520A89
:106530000A49CA620B6301234B620022074B5A606F
:1065400008BD45F67A13084AF2E745F61A03074AEA
:10655000EEE75362F1E700BF0090005000400250A8
:1065600000F0490264666666D8B80500BBCF050036
:10657000B0F5207F10B50C4642D008D8B0F5007FAA
:1065800033D003D888B1B0F5C07F0ED010BDB0F5C0
:10659000607FFBD11F4A4C1ED2F8803023F03003BD
:1065A00043EA0413C2F88030F0E71CF0A8FA1CF0AC
:1065B000B4FA4FF48031184B164A1967136F013C37
:1065C00023F4704343EA0433136728F0A1F8044628
:1065D000FFF7BEFAC0F1020120461CF098FA00F065
:1065E00035F8BDE81040FFF7B7BD0A4A4C1ED2F897
:1065F000903023F0F85343EA0463C2F89030C5E7C3
:10660000044A4C1E136F23F4806343EA8423136708
:10661000BCE700BF008000500090005008B5012189
:10662000022000F011F94FF42070FFF7F1FB054B49
:1066300018701CF064FA1CF070FA4FF48032024BB0
:106640001A6708BDD32B00200090005008B54FF406
:10665000C070FFF74DFCBDE808400449884294BF74
:10666000012102214FF42070FFF782BF80F0FA026F
:1066700038B5044628F04CF80546FFF769FAC0F132
:10668000020128461CF043FA0121002000F01CF909
:106690002CB1FFF7DBFFBDE83840FFF75DBD034BD2
:1066A0004FF420701978FFF763FFF4E7D32B002035
:1066B00010B5224B70B94FF40031214A1860516671
:1066C00002F598325268012A03D11E4AD2F80021FD
:1066D0001A6010BD1B68002BFBD01B4A5268012AB0
:1066E000F7D0184A8020C2F80031FFF745FD052891
:1066F0001FD14FF4C070FFF78BFB0128044604D173
:1067000002214FF4C070FFF733FF07220F4B1A61CD
:106710000122A3F580535A600B4A1369DB07FCD5AD
:10672000012CD6D12146BDE810404FF4C070FFF7D0
:106730001FBF0122064B5A60CBE700BF00190020A3
:10674000009000500080005000C0015000E0015057
:1067500000D00150044A4178536F23F4407343EA58
:1067600001235367704700BF0040005010B5044636
:1067700010B10020FFF79CFF124A136943F0040395
:10678000136128F03FFD1CF0CDF90F4B5B6E5B01F0
:1067900042BF0E4B0E4AC3F8202429F0D8F829F046
:1067A000EFFA29F0CFF81CF0BEF903F043F91CB959
:1067B000BDE8104027F0ACBF0120BDE81040FFF756
:1067C00077BF00BF00ED00E00080005000E0035004
:1067D0000000FF0F10B5044610B10020FFF768FF5E
:1067E000104A136943F0040313610F4B5B6E5B01A6
:1067F00042BF0E4B0E4AC3F8202428F003FD29F0B7
:10680000A6F829F0BDFA29F09DF803F013F91CB998
:10681000BDE8104027F07CBF0120BDE81040FFF725
:1068200047BF00BF00ED00E00080005000E00350D3
:106830000000FF0F034A0179D36E23F030030B43AE
:10684000D366704700400050F8B504461C4BD3F89F
:106850008420D106FBD4D3F88430C3F381139C4247
:106860002CD027F03BFF012C064602D121461CF01C
:106870004EF929F06CF84FF00072124B07465A6639
:1068800020461CF057F94FF480630D4D621E934073
:106890002B676B6E9A0103D4D5F884309B060AD51A
:1068A000384629F04FF8022C08D13046BDE8F840B0
:1068B00000211CF02CB9D5F88430EAE7F8BD00BF00
:1068C000004000500060005010B50C4608B927F099
:1068D00005FF074B21461B783BB1064B984204D875
:1068E0000120BDE81040FFF7AFBF0220F9E700BF6D
:1068F000D52B0020005A62020278034B01210020B0
:106900001A70FFF7E1BF00BFD52B00204FF0004207
:1069100038B5264B26495A6601224A604AF6CD31DF
:1069200003F50B235D6C1964154030BB9968C907EA
:106930000BD4002401221F4B5A6015B11E4B1F4A75
:106940001A6424F0F9F8204638BD1A498A601C4AB6
:10695000D96ACC0705D4904201D10724EAE7013077
:10696000F6E79042E5D1F8E70132DC6A14F008045A
:1069700006D08A42F8D10724DFE700221049F4E765
:106980008A42F8D020220B4B0B495A620122A3F510
:1069900080539A6023460A4A486A800603D4934289
:1069A000E9D00133F8E79342C7D1E4E70090005003
:1069B0000050095000600950004009503254FFFF58
:1069C00040420F004FF0004238B5174B174C5A6643
:1069D000012203F50C235A604AF6CD33656C23641B
:1069E000437893401343124AD363C3788178A268F3
:1069F0009B0043EA011322F074021343A36002795F
:106A0000837943EA022323614279C37943EA02236B
:106A100063610078FFF77AFFEB0744BF054B2364FF
:106A200024F08AF8012038BD009000500040095041
:106A3000004000503254FFFF10B504461CF07FF8B0
:106A4000002341F202020849E360A360226104F5D9
:106A50000052E3616361A36123626362E362A36442
:106A60005164A36210BD00BF7F370C0138B50446E6
:106A7000154639B91848844214BF08463820FFF734
:106A800037FA01466368A36803F0E003402B1AD08D
:106A900003D8D3B1202B1AD038BD602B19D0802B4E
:106AA000FAD101236B434901B1FBF3F10B4A2039C1
:106AB000204602EAC10201211CF03DF8A262BDE8B5
:106AC00038401CF038B80623ECE71023EAE7082327
:106AD000E8E70423E6E700BF0000035AF8FF7F0061
:106AE000F8B5436804460D4616461BB140F2FF71E7
:106AF0001CF021F82046FFF79FFFE9896B7B226994
:106B00000B43298A22F44C520B4322F00302134315
:106B10002361A2682B7B297E22F0804222F0E202D0
:106B20000B4313436A69AF681343A3601FB9A3689B
:106B300043F00043A360EB69002B57D0987A1A7A90
:106B40004004A16840EA82503E4A0A4010439A88B5
:106B500002F4C04210435A7840EA82005A7B40EA6D
:106B6000C2009A7B40EA02109A7840EA8220A06034
:106B7000E168D3E9042021F4D81121F4C061024373
:106B80000A43997942EA8122D97942EA4122E260B4
:106B90001A78012A05D1E26842F00402E2602A4A2A
:106BA00006E0032A3DD1E26842F00402E260274A8F
:106BB0000121C2F8C0105A7A04F580510A621AB154
:106BC000E26842F40062E260DA7A4AB1E26820499F
:106BD00042F40042E2601A7B02F00F02C1F880200A
:106BE000E269DB7B22F003021343E36136B196F8DE
:106BF000203004F58051C3B101238B61052120466B
:106C00001BF0BAFF1FB13A466968FFF72FFF204615
:106C100029781BF0CEFF236CDB4313F4405FFAD1DD
:106C2000F8BD023A012AC2D9B9E7626996F8223062
:106C300096F8210022F009020343134343F00103B5
:106C40004B61DBE7E39BBDFF00E4035000D403503E
:106C500000900350F8B504460D461F4616464AB14B
:106C600001238B403021184A01FB0022F7B141F289
:106C70001001535004EB4403072D4FF00F014FEA6E
:106C8000031316D8A80006FA00F281400F481844F2
:106C90001BF09EFF4EB9012330210B4AAB4001FB94
:106CA000042277B141F210015350F8BD42F21001B5
:106CB000DFE7A5F10800800006FA00F281400448F1
:106CC000E5E742F21001EFE700C0035004C00350B3
:106CD0000CC00350F8B505460E4614465AB303F0EF
:106CE0000307836823F44073836028F030FEAA68AA
:106CF00082EA072303F440735340AB6028F022FE7E
:106D000036B9104B9D4217D12E20FFF7F1F80646F9
:106D1000AB680D4BDA5D62430DD0A2EBC403013BBF
:106D20003344B3FBF2F3AA68013B920702D5002B70
:106D300008BF0123AB61F8BD044B9D42E8D12F2071
:106D4000E3E700BF0000015A1B0704000080065063
:106D500038B500230E4A036400F50053DA634A781D
:106D600004460D4600F108037AB903F58053022268
:106D70001A602046D5E901122B7BFFF7ABFF2046B6
:106D80002978BDE838401BF032BF03F50053EEE729
:106D9000FFFF1F00874B70B5984219D0864B984271
:106DA00040F00581854B9968C26B12F4C06F15D015
:106DB00091050FD5FD225A7009221A700022026433
:106DC00093F90110012900D15A7093F9010070BDA7
:106DD0007B4BE8E75605EFD5FE22ECE71C78082C44
:106DE00000F2E180DFE814F009001F0045005300C5
:106DF00070007E009C00A700D6004C880A88E5063B
:106E00000AD5120A02F0060242F0F00201211970BE
:106E10004263C1600120DAE702F0FE02A10748BF29
:106E200042F00102F2E7160608D5802100F5005273
:106E3000D1634FF608721A80022318E05506E9D58F
:106E4000402400F50052D4634A88D40604D50222B7
:106E50001A700B784363DDE796076AD507221A702C
:106E60001B7901EBC3031B89012BD3D10823C3601A
:106E7000D0E71506D9D45406CCD5402400F50052ED
:106E8000D4634A88920754D503221A708CE74C8841
:106E90000A88E60643BF120A02F0060242F0F00238
:106EA00002F0FE02650709D51C7942F0010201EBF0
:106EB000C4010989012904BF0821C1600421197096
:106EC0000123C3604263A5E71406AED45206A1D5E0
:106ED000402400F50052D4634A88560729D507227A
:106EE0001A7097E71A795D8801EBC2042689AE42D1
:106EF0000FD800240132D2B21A715C804C88650729
:106F0000C2D4E40702D4012A7FF64EAF08221A70D9
:106F100092E76268691C5980525D42630622DFE78E
:106F2000160682D455067FF575AF402400F5005251
:106F3000D4630522A9E794067FF56CAF456A214C1E
:106F400046691A793440B4F5003F04BF466A4FF4ED
:106F5000005601EBC20100F500540A8908BFE66340
:106F60002026E6635C88A24281BF4968661C5E8079
:106F70000D5559888A42C9D90424012AC46004D015
:106F8000013A914201D10822C2601A78092A3FF4DD
:106F900015AF3FE7D2057FF53DAF4FF4807100F5A7
:106FA0000052D16308E74FF609321A8006E76FF006
:106FB00003000CE70000015A008006501019002061
:106FC00004190020200002001C4B10B4984207D086
:106FD0001B4B98422ED06FF003005DF8044B7047B6
:106FE000184B0269D20744BF2022C2604A88940726
:106FF00002D50C89002CEED0520702D50A8A002A4D
:10700000E9D04FF480721A60002299601A71C0238F
:10701000C3604369DB050FD4202200F50053DA6317
:10702000094A5DF8044BDA63036C43F4FC630364C0
:10703000FFF7B0BE054BD4E7436AEAE70000015A08
:107040000080065004190020FFFF1F0010190020C7
:1070500010B5152001F038FB0024FF22064B214615
:107060005C6520209A625C60FEF722FF2146BDE845
:1070700010402120FEF71CBF00000450044A054BBD
:10708000002908BF1346012282401A60704700BFE2
:10709000401004504020045010B501210446202027
:1070A000FEF706FF01212120FEF702FF0122114B0E
:1070B00015205A60227812069A606178A27842EA16
:1070C00001429A61FF229A6200229A631A644FF089
:1070D00000425A654FF0FF3203F500531A6501F084
:1070E00021FB1520E1781BF066FEBDE8104015205D
:1070F00001F0FCBA00000450F8B50125C3B2DFF876
:107100008CC0D1F800E09D408F7ACB7A0C46097B89
:10711000CCF850500CF5005C4CF820E04FF0300EED
:10712000184E1B050EFB006094F80DC043EA0743A0
:1071300043EA415322F00302C0F860C0C36502670E
:1071400028F00EFC104B5D65237A13B1336C2B4392
:107150003364637A13B1B36B2B43B3632279A3799E
:1071600043EA0243094A93616179E37943EA0143BF
:1071700005498B61034B55639D64BDE8F84028F0D9
:10718000EABB00BF0000045000100450002004506F
:1071900010B50124C0B2844028F0E2FB044B5A6DC4
:1071A00022EA04025A659C62BDE8104028F0D3BB75
:1071B0000000045010B50124C0B2844028F0D0FB78
:1071C000074BDA6A224208D15B6B9C430CBF012457
:1071D000002428F0C0FB204610BD0024F9E700BFC2
:1071E0000000045070B5054628F0BAFB3022084B69
:1071F0005E6B02FB05335C6E28F0ADFB0123EDB244
:10720000AB4033420ABFC4F30A100020013070BD06
:10721000000004504FF40032054B9A6641F671327B
:1072200003F51C33DA63012203F50053DA6070477B
:107230000090005041F671320121064BDA6303F5EC
:107240000052D1600022DA634FF40032A3F5183304
:107250009A66704700000350CB784A7810B55B01FE
:107260000C7843EA82030A79234343EA02130C228F
:10727000424302F1B0421363012C02BF8A78024BF1
:1072800043F8202010BD00BFE880035008B54FF040
:10729000B0435A686AB958B15B680BB11BF0B1FCD6
:1072A00001210D4B59601BF0ACFC4FF0B043D9608D
:1072B00008BD5B680BB11BF0A4FC0028F0D11BF0EB
:1072C000A0FC4FF0B0430222DA601BF09AFC0122CE
:1072D000024B5A60ECE700BF001000580020005835
:1072E0004FF0B0414B6810B50BB11BF08AFC012286
:1072F0000B4BC4785A608378934043EA8403447804
:107300002343047943EA0413447943EAC4038B60BA
:10731000044B5A600378C3F10203CB6010BD00BF79
:1073200000200058001000584FF48032064B5A6677
:1073300003F5E6235B69C3F38512827003F03F0215
:107340001B0B42700370704700900050014B986C0B
:10735000D96C70470080E00F024B1868C0F30740FB
:10736000704700BF0080E00F0120034B9B680A3389
:1073700003F01F03984070470080E00F034BD3F8E1
:107380002424D3F820041040704700BF00C00350ED
:107390002DE9F8431E4B0546D3F810334B1E0E2B38
:1073A0000E46174690F8009044781DD909B34FF067
:1073B00000082846D7B128F0D9FA09EB4903072C71
:1073C0004FF00F014FEA031315D8A400114808FA33
:1073D00004F2A14018441BF01CFCBEB928468FB132
:1073E000BDE8F84328F0C2BA8846E2E71BF020FC6B
:1073F000E3E78846E1E7083CA400074808FA04F2FE
:10740000A140E7E7BDE8F8431BF012BCBDE8F883F4
:1074100000C0035004C003500CC003504FF480322E
:10742000084B5A6603F5E6235B691A0B027003F0FA
:107430003F0242704FF6FF72C3F385134280838090
:10744000704700BF00900050014B986CD96C70479A
:107450000080E00F70B5044623F03CFC064630B9CE
:107460000FCC044D0FC594E8030085E803003046B7
:1074700070BD00BF1C19002047F6FF739A42F0B59B
:107480006FD002296FD8394B5B5C012B6BD8384D1C
:10749000DF0005EBC30415F83330A178012B13D1BD
:1074A0000025E078401AA84202D80844C0B2F0BDD6
:1074B000431B6668A0EB530336F913609642D4BFB2
:1074C0001D4603F1FF30EEE760680028EFD0B0F909
:1074D0000040944204DBB0F902409442B8BF144625
:1074E00083883D44FF2B19BFC8224FF0280CB0F908
:1074F0000620B0F908C0A2EB04030CBF0126002649
:1075000093FBFCF333446E781BB29E4201DD002BEB
:1075100001DA731E1BB24FF47A7C01339BB2071D54
:107520005D1E2DB24FEAC50E00EBC505EA88AD68B9
:107530009E4214FB025222EAE27202F15C02B2FBAA
:10754000FCF204DD37F8335001339542E8D200EB0A
:107550000E039888904228BF1046884238BF0846DC
:10756000A4E7FF20A3E70020A1E700BF1F07040056
:107570001C1900200229F0B555D82C4B585C012865
:1075800051D82B4C04EBC00114F830004B68012893
:107590000FD1C8788C78904294BFC4EB0001C4EB43
:1075A0000201001BCAB28242C8BF002233F9120096
:1075B000F0BD002B37D08878904202D3B3F9020097
:1075C000F6E7CC78B3F900009442F1D94C78998869
:1075D000013CA1F1FF06714203F10405E4B27141DF
:1075E00003F10C07CEB2B44216D805EBC1014FF43B
:1075F0007A756A43B1F902404968521A04EBD471B2
:1076000002EB610292FBF4F29042D1DBB3F902008B
:107610009042CDDC10B2CBE737F831C04E1C944518
:10762000E3D33146DEE70348C2E700BF1F0704008B
:107630001C1900200080FFFF08B50448FFF70AFF6F
:10764000BDE80840012023F049BB00BFCC0D040079
:10765000004870472A3100207FB50222084B0949B3
:10766000CDE901234FF00073CDE90313052301A9F0
:107670004FF0FF30059323F07AFB07B05DF804FB71
:10768000006A18000002040006289ABF014B185C2B
:1076900000207047220704004FF40052034B0020E3
:1076A0009A660322C3F86022704700BF0090005022
:1076B0004FF40052034B00209A660322C3F8602265
:1076C000704700BF00A00050012300F01F02A0F58A
:1076D00006200949A0F550604009934051F8202048
:1076E0001A4341F82020054951F8202022EA0302DC
:1076F00041F82020704700BF4C19002038190020A5
:107700000121A0F506230E4AA3F550635B0900F0A2
:107710001F00814052F82300014342F82310094919
:10772000D1E90030034488680344C8680969034408
:107730005B1802BFC2E90033C2E90233136170472C
:10774000381900204C1900202DE9F04FA9B0039200
:107750001D4604460822339ECDE90401414021FA2A
:1077600002F34B40980702F1080218BF9B00202A41
:107770001C44F4D18123B4FBF3F303EBC313E41AE9
:10778000734B04F506241B7804F55064002B3ED19E
:10779000FEF7E8F8074620B16FF0910029B0BDE888
:1077A000F08F0146402208A824F0C9F9402239464A
:1077B00018A824F0C4F9DFF8B081DFF8B091C3460F
:1077C0000BF10F0ACDF800A0102208A95B46D9F8EA
:1077D00000001AF09CFF0022014608F1100808AFD3
:1077E000914246D1CDF800A05B461022D9F80000A6
:1077F00018A91AF095FF4FF0000A834618AFD34539
:1078000041D1544B9845DAD10122514B1A704FF0B7
:10781000810A4FF00008DFF858B1A4F50627A7F554
:1078200050635B095BF8232004F01F01CA40D207B4
:107830003DD4494A52F82330CB40DB072AD5B8F172
:10784000000F08BFA0468123A7F6FF47B7FBF3F35D
:1078500003EBC313FF1A07F50624BAF1010A04F576
:107860005064DAD1039BBBB1B8F1000F14D0444689
:1078700019E057F8040BCDE90612FFF725FF079A28
:1078800006990132ACE757F8040BFFF739FF0AF10C
:10789000010AB4E7039B13B96FF08B007EE7B8F1E0
:1078A000000F18BF4446349B00201C6076E7329BD3
:1078B00013B10023329A13600EB1002333601023FA
:1078C000DFF8A89000932A4600232146D9F800004B
:1078D000FDF722FF60BB32992A68204BC9B99A4252
:1078E00006D02146D9F80000FDF798FF0028D3D133
:1078F000D5E90223DDE90410834208BF8A42A2D100
:10790000039B002BCFD06B68012BCCD16FF0840090
:1079100044E7102032999A420860E2D1002EE7D065
:1079200033462146D9F8000018AAFDF73BFF40B1C5
:107930000B4B9842D5D06328D3D00A4B9842D7D06E
:107940002AE7329A336812689B1A3360D0E700BF87
:10795000D62B00200071080038190020105D175E3A
:10796000FFDF00F0FEDF00F0006D08003C2F00207C
:107970004C1900202DE9F04F87B082468946984681
:107980001646DDF840B02AB1002B4FD040F26C73A0
:107990009A424ED8BBF1010F4ED8002406F11007D1
:1079A0003946012005941BF0FAFC0546002846D014
:1079B00021463A4624F0C3F805ABCDE901430094D3
:1079C0002B46012250464946FFF7BEFE044680B1D1
:1079D00010F18C0F08BF6FF08D043A460021284645
:1079E00024F0ADF828461BF0BCFC204607B0BDE8EB
:1079F000F08F144BC5E902A92B60C5F804B02EB175
:107A00003246414605F1100024F0DBF8059E0E4891
:107A10003B462A4631460068FDF7FAFD18B9304664
:107A2000FFF752FED9E76FF09104D6E76FF08604B6
:107A3000DBE76FF09104D8E76FF08504D5E76FF0CE
:107A40008C04D2E7105D175E3C2F00202DE9F04337
:107A50008DB08146DDE914780E4615461C469BB173
:107A6000B8F1000F05D16FF0860630460DB0BDE8C5
:107A7000F083002FF7D0B7F1005FF4D3C3F10053C8
:107A800003F500439F42EED81022002108A824F0FD
:107A900056F8002207AB029305AB019306AB3146C3
:107AA0000093484608ABCDE90522FFF74DFE064698
:107AB0000028DAD1059BA4B1AB4215D853EA0504DE
:107AC000D1D1069B0B48C8F8004000943A4607996C
:107AD00000682B44FDF720FE002818BF6FF09106C8
